:020000002128B5
:0E0006008312031321088A00200882000800DC
:100014008316031306108610061186118115011428
:0600240081140115080023
:10002A0003208A110A128000840AA00A0319A10A6D
:08003A00F003031D1528080066
:100042000A20831206140330FB000830FC007730CC
:10005200FD00FD0B2A28FC0B2A28FB0B2A28061080
:100062000330FB000830FC007730FD00FD0B372821
:10007200FC0B3728FB0B372886140B30FB0026308D
:10008200FC005D30FD00FD0B4428FC0B4428FB0BFB
:1000920044280000000086100B30FB002630FC00D4
:1000A2005D30FD00FD0B5328FC0B5328FB0B53283E
:1000B2000000000006150B30FB002630FC005D300E
:1000C200FD00FD0B6228FC0B6228FB0B622800007E
:1000D200000006110B30FB002630FC005D30FD00F5
:1000E200FD0B7128FC0B7128FB0B7128000000002E
:0400F2003D287A2803
:02400E004A2F37
:00000001FF
